{
  "_format": "hh-sol-artifact-1",
  "contractName": "PermitDistributor",
  "sourceName": "src/PermitDistributor.sol",
  "abi": [
    {
      "inputs": [
        {
          "internalType": "address",
          "name": "_usdc",
          "type": "address"
        }
      ],
      "stateMutability": "nonpayable",
      "type": "constructor"
    },
    {
      "inputs": [
        {
          "internalType": "address",
          "name": "owner",
          "type": "address"
        }
      ],
      "name": "OwnableInvalidOwner",
      "type": "error"
    },
    {
      "inputs": [
        {
          "internalType": "address",
          "name": "account",
          "type": "address"
        }
      ],
      "name": "OwnableUnauthorizedAccount",
      "type": "error"
    },
    {
      "anonymous": false,
      "inputs": [
        {
          "indexed": true,
          "internalType": "address",
          "name": "previousOwner",
          "type": "address"
        },
        {
          "indexed": true,
          "internalType": "address",
          "name": "newOwner",
          "type": "address"
        }
      ],
      "name": "OwnershipTransferred",
      "type": "event"
    },
    {
      "anonymous": false,
      "inputs": [
        {
          "indexed": true,
          "internalType": "address",
          "name": "owner",
          "type": "address"
        },
        {
          "indexed": true,
          "internalType": "address",
          "name": "recipient",
          "type": "address"
        },
        {
          "indexed": false,
          "internalType": "uint256",
          "name": "amount",
          "type": "uint256"
        },
        {
          "indexed": true,
          "internalType": "bytes32",
          "name": "operationId",
          "type": "bytes32"
        }
      ],
      "name": "PermitExecuted",
      "type": "event"
    },
    {
      "inputs": [
        {
          "internalType": "address",
          "name": "owner",
          "type": "address"
        },
        {
          "internalType": "uint256",
          "name": "value",
          "type": "uint256"
        },
        {
          "internalType": "uint256",
          "name": "deadline",
          "type": "uint256"
        },
        {
          "internalType": "uint8",
          "name": "v",
          "type": "uint8"
        },
        {
          "internalType": "bytes32",
          "name": "r",
          "type": "bytes32"
        },
        {
          "internalType": "bytes32",
          "name": "s",
          "type": "bytes32"
        },
        {
          "internalType": "address",
          "name": "recipient",
          "type": "address"
        },
        {
          "internalType": "uint256",
          "name": "amount",
          "type": "uint256"
        },
        {
          "internalType": "bytes32",
          "name": "operationId",
          "type": "bytes32"
        }
      ],
      "name": "executeWithPermit",
      "outputs": [],
      "stateMutability": "nonpayable",
      "type": "function"
    },
    {
      "inputs": [
        {
          "internalType": "address",
          "name": "owner",
          "type": "address"
        }
      ],
      "name": "getAllowance",
      "outputs": [
        {
          "internalType": "uint256",
          "name": "",
          "type": "uint256"
        }
      ],
      "stateMutability": "view",
      "type": "function"
    },
    {
      "inputs": [],
      "name": "owner",
      "outputs": [
        {
          "internalType": "address",
          "name": "",
          "type": "address"
        }
      ],
      "stateMutability": "view",
      "type": "function"
    },
    {
      "inputs": [],
      "name": "renounceOwnership",
      "outputs": [],
      "stateMutability": "nonpayable",
      "type": "function"
    },
    {
      "inputs": [
        {
          "internalType": "address",
          "name": "from",
          "type": "address"
        },
        {
          "internalType": "address",
          "name": "to",
          "type": "address"
        },
        {
          "internalType": "uint256",
          "name": "amount",
          "type": "uint256"
        },
        {
          "internalType": "bytes32",
          "name": "operationId",
          "type": "bytes32"
        }
      ],
      "name": "transferFrom",
      "outputs": [],
      "stateMutability": "nonpayable",
      "type": "function"
    },
    {
      "inputs": [
        {
          "internalType": "address",
          "name": "newOwner",
          "type": "address"
        }
      ],
      "name": "transferOwnership",
      "outputs": [],
      "stateMutability": "nonpayable",
      "type": "function"
    },
    {
      "inputs": [],
      "name": "usdc",
      "outputs": [
        {
          "internalType": "contract IUSDC",
          "name": "",
          "type": "address"
        }
      ],
      "stateMutability": "view",
      "type": "function"
    }
  ],
  "bytecode": "0x60a06040523480156200001157600080fd5b5060405162000eaf38038062000eaf833981810160405281019062000037919062000228565b33600073ffffffffffffffffffffffffffffffffffffffff168173ffffffffffffffffffffffffffffffffffffffff1603620000ad5760006040517f1e4fbdf7000000000000000000000000000000000000000000000000000000008152600401620000a491906200026b565b60405180910390fd5b620000be81620000fa60201b60201c565b508073ffffffffffffffffffffffffffffffffffffffff1660808173ffffffffffffffffffffffffffffffffffffffff16815250505062000288565b60008060009054906101000a900473ffffffffffffffffffffffffffffffffffffffff169050816000806101000a81548173ffffffffffffffffffffffffffffffffffffffff021916908373ffffffffffffffffffffffffffffffffffffffff1602179055508173ffffffffffffffffffffffffffffffffffffffff168173ffffffffffffffffffffffffffffffffffffffff167f8be0079c531659141344cd1fd0a4f28419497f9722a3daafe3b4186f6b6457e060405160405180910390a35050565b600080fd5b600073ffffffffffffffffffffffffffffffffffffffff82169050919050565b6000620001f082620001c3565b9050919050565b6200020281620001e3565b81146200020e57600080fd5b50565b6000815190506200022281620001f7565b92915050565b600060208284031215620002415762000240620001be565b5b6000620002518482850162000211565b91505092915050565b6200026581620001e3565b82525050565b60006020820190506200028260008301846200025a565b92915050565b608051610bef620002c06000396000818161014e0152818161017a0152818161028f0152818161032601526104770152610bef6000f3fe608060405234801561001057600080fd5b506004361061007d5760003560e01c8063715018a61161005b578063715018a6146100d85780638da5cb5b146100e2578063eb5a662e14610100578063f2fde38b146101305761007d565b80633e413bee14610082578063401e3367146100a057806354a0393f146100bc575b600080fd5b61008a61014c565b6040516100979190610770565b60405180910390f35b6100ba60048036038101906100b5919061083a565b610170565b005b6100d660048036038101906100d191906108da565b610285565b005b6100e0610436565b005b6100ea61044a565b6040516100f791906109b3565b60405180910390f35b61011a600480360381019061011591906109ce565b610473565b6040516101279190610a0a565b60405180910390f35b61014a600480360381019061014591906109ce565b610518565b005b7f000000000000000000000000000000000000000000000000000000000000000081565b61017861059e565b7f000000000000000000000000000000000000000000000000000000000000000073ffffffffffffffffffffffffffffffffffffffff166323b872dd8585856040518463ffffffff1660e01b81526004016101d593929190610a25565b6020604051808303816000875af11580156101f4573d6000803e3d6000fd5b505050506040513d601f19601f820116820180604052508101906102189190610a94565b50808373ffffffffffffffffffffffffffffffffffffffff168573ffffffffffffffffffffffffffffffffffffffff167f7f4b8817672a2878cf7b1a16638a0e47ff8e5f50adc6fcdea69640d0f85dfcc6856040516102779190610a0a565b60405180910390a450505050565b61028d61059e565b7f000000000000000000000000000000000000000000000000000000000000000073ffffffffffffffffffffffffffffffffffffffff1663d505accf8a308b8b8b8b8b6040518863ffffffff1660e01b81526004016102f29796959493929190610adf565b600060405180830381600087803b15801561030c57600080fd5b505af1158015610320573d6000803e3d6000fd5b505050507f000000000000000000000000000000000000000000000000000000000000000073ffffffffffffffffffffffffffffffffffffffff166323b872dd8a85856040518463ffffffff1660e01b815260040161038193929190610a25565b6020604051808303816000875af11580156103a0573d6000803e3d6000fd5b505050506040513d601f19601f820116820180604052508101906103c49190610a94565b50808373ffffffffffffffffffffffffffffffffffffffff168a73ffffffffffffffffffffffffffffffffffffffff167f7f4b8817672a2878cf7b1a16638a0e47ff8e5f50adc6fcdea69640d0f85dfcc6856040516104239190610a0a565b60405180910390a4505050505050505050565b61043e61059e565b6104486000610625565b565b60008060009054906101000a900473ffffffffffffffffffffffffffffffffffffffff16905090565b60007f000000000000000000000000000000000000000000000000000000000000000073ffffffffffffffffffffffffffffffffffffffff1663dd62ed3e83306040518363ffffffff1660e01b81526004016104d0929190610b4e565b602060405180830381865afa1580156104ed573d6000803e3d6000fd5b505050506040513d601f19601f820116820180604052508101906105119190610b8c565b9050919050565b61052061059e565b600073ffffffffffffffffffffffffffffffffffffffff168173ffffffffffffffffffffffffffffffffffffffff16036105925760006040517f1e4fbdf700000000000000000000000000000000000000000000000000000000815260040161058991906109b3565b60405180910390fd5b61059b81610625565b50565b6105a66106e9565b73ffffffffffffffffffffffffffffffffffffffff166105c461044a565b73ffffffffffffffffffffffffffffffffffffffff1614610623576105e76106e9565b6040517f118cdaa700000000000000000000000000000000000000000000000000000000815260040161061a91906109b3565b60405180910390fd5b565b60008060009054906101000a900473ffffffffffffffffffffffffffffffffffffffff169050816000806101000a81548173ffffffffffffffffffffffffffffffffffffffff021916908373ffffffffffffffffffffffffffffffffffffffff1602179055508173ffffffffffffffffffffffffffffffffffffffff168173ffffffffffffffffffffffffffffffffffffffff167f8be0079c531659141344cd1fd0a4f28419497f9722a3daafe3b4186f6b6457e060405160405180910390a35050565b600033905090565b600073ffffffffffffffffffffffffffffffffffffffff82169050919050565b6000819050919050565b600061073661073161072c846106f1565b610711565b6106f1565b9050919050565b60006107488261071b565b9050919050565b600061075a8261073d565b9050919050565b61076a8161074f565b82525050565b60006020820190506107856000830184610761565b92915050565b600080fd5b600061079b826106f1565b9050919050565b6107ab81610790565b81146107b657600080fd5b50565b6000813590506107c8816107a2565b92915050565b6000819050919050565b6107e1816107ce565b81146107ec57600080fd5b50565b6000813590506107fe816107d8565b92915050565b6000819050919050565b61081781610804565b811461082257600080fd5b50565b6000813590506108348161080e565b92915050565b600080600080608085870312156108545761085361078b565b5b6000610862878288016107b9565b9450506020610873878288016107b9565b9350506040610884878288016107ef565b925050606061089587828801610825565b91505092959194509250565b600060ff82169050919050565b6108b7816108a1565b81146108c257600080fd5b50565b6000813590506108d4816108ae565b92915050565b60008060008060008060008060006101208a8c0312156108fd576108fc61078b565b5b600061090b8c828d016107b9565b995050602061091c8c828d016107ef565b985050604061092d8c828d016107ef565b975050606061093e8c828d016108c5565b965050608061094f8c828d01610825565b95505060a06109608c828d01610825565b94505060c06109718c828d016107b9565b93505060e06109828c828d016107ef565b9250506101006109948c828d01610825565b9150509295985092959850929598565b6109ad81610790565b82525050565b60006020820190506109c860008301846109a4565b92915050565b6000602082840312156109e4576109e361078b565b5b60006109f2848285016107b9565b91505092915050565b610a04816107ce565b82525050565b6000602082019050610a1f60008301846109fb565b92915050565b6000606082019050610a3a60008301866109a4565b610a4760208301856109a4565b610a5460408301846109fb565b949350505050565b60008115159050919050565b610a7181610a5c565b8114610a7c57600080fd5b50565b600081519050610a8e81610a68565b92915050565b600060208284031215610aaa57610aa961078b565b5b6000610ab884828501610a7f565b91505092915050565b610aca816108a1565b82525050565b610ad981610804565b82525050565b600060e082019050610af4600083018a6109a4565b610b0160208301896109a4565b610b0e60408301886109fb565b610b1b60608301876109fb565b610b286080830186610ac1565b610b3560a0830185610ad0565b610b4260c0830184610ad0565b98975050505050505050565b6000604082019050610b6360008301856109a4565b610b7060208301846109a4565b9392505050565b600081519050610b86816107d8565b92915050565b600060208284031215610ba257610ba161078b565b5b6000610bb084828501610b77565b9150509291505056fea2646970667358221220bc5522c21d19260b45d4b50b96d3865571e01838991b929c7380803490630a1f64736f6c63430008140033",
  "linkReferences": {},
  "deployedLinkReferences": {}
}